S00B00004144432E7372656351
S11300000C942A000C9447000C9447000C9447006D
S11300100C9447000C9447000C9447000C94470040
S11300200C9447000C9447000C9447000C94470030
S11300300C9447000C9447000C9447000C94470020
S11300400C9463010C9447000C9447000C944700F3
S11300500C94470011241FBECFE5D8E0DEBFCDBF0E
S113006010E0A0E6B0E0EAE9F3E002C005900D92EA
S1130070AE37B107D9F720E0AEE7B0E001C01D927A
S1130080A038B207E1F70E9485010C94CB010C94CF
S1130090000095B39F70282F207F922B95BB95B3BA
S11300A09E7F95BB95B39D7F95BB95B3946095BB9F
S11300B0000095B39B7F95BB36E03A95F1F700C0FD
S11300C025B330E1839FC0011124922F9F70892BA7
S11300D085BB85B3846085BB000085B38B7F85BBFE
S11300E0089595B39F70282F207F922B95BB95B3CD
S11300F0916095BB95B39D7F95BB95B3946095BB7B
S1130100000095B39B7F95BB25B330E1839FC0016D
S11301101124922F9F70892B85BB85B3846085BB86
S1130120000085B38B7F85BB08958FEF84BB85B3B7
S11301308B7F85BB83EF91E00197F1F700C000004E
S113014083E30E94490091E29A95F1F7000082E36B
S11301500E94490081E28A95F1F7000088E20E943A
S1130160490091E29A95F1F700008EE00E9449005F
S113017081E28A95F1F7000081E00E94490083EF53
S113018091E00197F1F700C0000086E00E94490069
S113019091E29A95F1F700000895CF93DF9300D090
S11301A000D0CDB7DEB790E8998390EC9A8394E9B8
S11301B09B8394ED9C83E62FF0E0319721E030E0BF
S11301C02C0F3D1FE20FF31F9081890F81500E9475
S11301D0490031E23A95F1F700000F900F900F902B
S11301E00F90DF91CF9108950F931F93CF938C01BC
S11301F0C0E003C00E947100CF5FF801EC0FF11D55
S113020080818111F7CFCF911F910F910895AC0197
S113021090E009C0FA01E90FF11D2081211105C008
S113022020E320839F5F9430A8F30895FF920F93F7
S11302301F93CF93DF93EC018B01F12C2FC02097F8
S113024081F19E01ADECBCEC0E94BC01AC01569561
S113025047955695479556954795CA01880F991F16
S1130260440F551F440F551F440F551F480F591F66
S1130270CE01841B950BAC010E94BC01EC01D69508
S1130280C795D695C795D695C795E3E0F0E0EF19E5
S1130290F109E00FF11F405D4083F39493E09F1553
S11302A070F6C8010E940701DF91CF911F910F9151
S11302B0FF900895683030F4686866B987B986B1EC
S11302C0806486B908951F920F920FB60F9211247D
S11302D02F933F938F939F9384B190E090937F00EB
S11302E080937E0025B130E0322F2227822B932B7E
S11302F090937F0080937E009F918F913F912F91E7
S11303000F900FBE0F901F901895CF93DF9300D0DE
S113031000D0CDB7DEB71ABA8FEF8BBB84BB81BBDD
S113032078940E94950061E081E00E94CD0080E60F
S113033090E00E94F40063E080E40E945A01198274
S11303401A821B821C8283E08A95F1F70000BE01A9
S11303506F5F7F4F80917E0090917F000E94160115
S113036062E081E00E94CD00CE0101960E94F4007B
S113037086B1806486B9E3CFA29FB001B39FC00168
S1130380A39F700D811D1124911DB29F700D811DBD
S10D03901124911D0895F894FFCF85
S113039A436F6E7665727465642076616C75652048
S11103AA697320657175616C20746F203A00D0
S9030000FC
